:10000000A4C20000D3C20000D1C20000CFC20000D1
:10001000CDC20000CBC20000C9C20000C7C20000B0
:10002000C5C20000C3C20000C1C20000BFC20000C0
:10003000BDC20000BBC20000B9C20000B7C20000D0
:10004000B5C200000C94A141B1C20000AFC20000D3
:100050000C945A3DABC20000A9C200000C940743A7
:10006000A5C200000C9455470C948B479FC200001A
:100070009DC200009BC2000099C2000097C2000010
:100080000C94CE4193C2000091C200008FC20000C8
:100090008DC200008BC2000089C2000087C2000030
:1000A00085C2000083C200000C94FB417FC20000A7
:1000B0007DC200007BC2000079C200000C9428427F
:1000C00075C2000073C2000071C200006FC2000060
:1000D0006DC200006BC2000069C2000067C2000070
:1000E00065C200009B13A213A713AC13B313B8137C
:1000F000A115A115A115A115A115BF13C613CD13E7
:10010000A115D413D913DE13E513EA13EF13F41377
:10011000F913FE13A115031408140D14A115A1154C
:10012000A115121417141C14A115A11521142814BB
:10013000A115A115A1152F1436143D14A1154414B1
:1001400049144E14A115A115A115531458145D148A
:10015000A11564146B147214A115A115A1157914BD
:1001600080148714A1158E1495149C14A115A11543
:10017000A115A314AA14B114A115A115A115A115B7
:10018000A115A115A115A115A115A115A115A115BF
:10019000A115A115A115A115A115A115A115A115AF
:1001A000A115A115A115A115A115A115A115C7147A
:1001B000CC14D114A115D614DB14E014A115A1158B
:1001C000A115E514EC14F314A115FA140115081582
:1001D000A115A115A1150F1516151D15A11524158D
:1001E00029152E15A115A115A115331538153D1585
:1001F000A115A115A115A115A115A115A115A1154F
:10020000A115A115A115B814BD14C214A115A115ED
:10021000A115A115A115A115A115A115A115A1152E
:10022000A115A115A115A115A115A115A115A1151E
:10023000A115A115A115A115A115A115A115A1150E
:10024000A115A115A115A115A115A115A115A115FE
:10025000A115A115A115A115A115A115A115A115EE
:10026000A115A115A115A115A115A115A115A115DE
:10027000A115A115A115421547154E15A115551526
:100280005A156115A115A115A11568156D157415DF
:10029000A1157B1580158715A115A115A1158E1522
:1002A00093159A155C446144664470447A44F3445F
:1002B00084448C4494449E44A844B244C144CB44F6
:1002C000F344D544DF44E9441545184507450B453B
:1002D00011454F451C45204526452A452E453445A8
:1002E00038453C454F45424546454A4500000A0BC6
:1002F00002090C0D0E0807030401000000000000B5
:1003000000000000000000000000000000000000ED
:1003100000000000000000001211100000000000AA
:1003200000000000000000000000000000000000CD
:1003300000000102102020080810204010204080FA
:100340000201020108040201010204081020408099
:100350008040201008040201800402018040201027
:100360000804020108040201010204081020408070
:10037000010204081020408005050505070508084E
:100380000808020202020A0A08080404040401011F
:100390000101010101010303030303030303040734
:1003A00007070C0C0C0C0C0C0C0C020202020606CB
:1003B0000606060606060B0B0B0B0B0B0B0B0000C1
:1003C00020002300260029002C002F00320000010D
:1003D0000000030106010901000022002500280099
:1003E0002B002E003100340002010000050108013D
:1003F0000B0100002100240027002A002D003000FE
:10040000330001010000040107010A014E414E4979
:100410004E495459494E46CDCCCC3D0AD7233C17C2
:10042000B7D13877CC2B329595E6241FB14F0A000F
:100430000020410000C84200401C4620BCBE4CCAFF
:100440001B0E5AAEC59D7400407A10F35A00A0727C
:100450004E18090010A5D4E80000E87648170000FF
:10046000E40B54020000CA9A3B000000E1F50500CD
:100470000080969800000040420F000000A0860116
:10048000000000102700000000E8030000000064E6
:1004900000000000000A0000000000010000000051
:1004A000002C76D888DC674F0823DFC1DFAE59E126
:1004B000B1B796E5E3E453C63AE651997696E8E695
:1004C000C28426EB898C9B62ED407C6FFCEFBC9C68
:1004D0009F40F2BAA56FA5F490055A2AF75C936B7A
:1004E0006CF9676DC11BFCE0E40D47FEF520E6B535
:1004F00000D0ED902E0300943577050080841E080F
:100500000000204E0A000000C80C333333330F982C
:100510006E12831141EF8D2114893BE65516CFFEF3
:10052000E6DB18D1844B381BF77C1D901DA4BBE47F
:1005300024203284725E228100C9F124ECA1E53DC1
:100540002700E419113FBD47263F11241FBECFEFFE
:10055000D1E2DEBFCDBF00E00CBF18E0A0E0B2E00A
:10056000E6E5FAEA00E00BBF02C007900D92A83F53
:10057000B107D9F72CE0A8EFB8E001C01D92AF3D5C
:10058000B207E1F715E0C8E4D5E000E006C0229725
:100590000109FE010BBF0E943E4EC234D10780E02C
:1005A0000807A9F70E94AD4B0C941A5529CDCF939B
:1005B000DF93EB0167E272E0CE010E949350892B3A
:1005C00009F4CBC06AE272E0CE010E949350892BFD
:1005D00009F4C3C06EE272E0CE010E949350892BF1
:1005E00009F4BEC061E372E0CE010E949350892BF2
:1005F00009F4B6C065E372E0CE010E949350892BE6
:1006000009F4B1C069E372E0CE010E949350892BD6
:1006100009F4A9C06CE372E0CE010E949350892BCB
:1006200009F4A4C060E472E0CE010E949350892BCB
:1006300009F49FC064E472E0CE010E949350892BBC
:1006400009F49AC068E472E0CE010E949350892BAD
:1006500009F495C06CE472E0CE010E949350892B9E
:1006600009F490C060E572E0CE010E949350892B9E
:1006700009F48BC064E572E0CE010E949350892B8F
:1006800009F486C068E572E0CE010E949350892B80
:1006900009F481C06CE572E0CE010E949350892B71
:1006A00009F47CC060E672E0CE010E949350892B71
:1006B00009F477C064E672E0CE010E949350892B62
:1006C00009F472C068E672E0CE010E949350892B53
:1006D00009F46DC06CE672E0CE010E949350892B44
:1006E00009F468C060E772E0CE010E949350892B44
:1006F00009F463C064E772E0CE010E949350892B35
:1007000009F45EC068E772E0CE010E949350892B25
:1007100009F459C06CE772E0CE010E949350892B16
:1007200009F454C060E872E0CE010E949350892B16
:1007300009F44FC064E872E0CE010E949350892B07
:1007400009F44AC068E872E0CE010E949350892BF8
:1007500009F045C088EB90E044C080E090E041C0E3
:1007600081E090E03EC08DE690E03BC08FE690E0F7
:1007700038C080E790E035C081E790E032C082E782
:1007800090E02FC083E790E02CC084E790E029C080
:1007900088E790E026C089E790E023C08AE790E0F0
:1007A00020C083E890E01DC084E890E01AC08DE886
:1007B00090E017C08EE890E014C08FE890E011C080
:1007C00080E990E00EC081EA90E00BC085EB90E0FC
:1007D00008C086EB90E005C087EB90E002C08FEF89
:1007E0009FEFDF91CF9108950F931F93CF93DF93E6
:1007F000EC018B01FB018081883541F4CB0101962E
:100800000E947C506A837B838C839D83F801808166
:10081000893541F4C80101960E947C506E837F8324
:1008200088879987F80180818A3541F4C80101964B
:100830000E947C506A877B878C879D87F801808126
:10084000813451F4C80101960E947C500E948D4C65
:100850006E877F87888B998BF8018081823451F471
:10086000C80101960E947C500E948D4C6A8B7B8B44
:100870008C8B9D8BF8018081833451F4C8010196E3
:100880000E947C500E948D4C6E8B7F8B888F998F3D
:10089000F8018081833541F4C80101960E947C50A3
:1008A0006A8F7B8F8C8F9D8FF8018081803551F40A
:1008B000C80101960E947C500E948D4C6E8F7F8FE4
:1008C00088A399A3F8018081863551F4C801019667
:1008D0000E947C500E948D4C6AA37BA38CA39DA395
:1008E000F8018081873551F4C80101960E947C503F
:1008F0000E948D4C6EA37FA388A799A7F8018081E1
:10090000853451F4C80101960E947C500E948D4CA0
:100910006AA77BA78CA79DA7F8018081843551F435
:10092000C80101960E947C500E948D4C6EA77FA743
:1009300088AB99ABF80180818D3451F4C8010196E0
:100940000E947C500E948D4C6AAB7BAB8CAB9DAB04
:10095000F8018081813551F4C80101960E947C50D4
:100960000E948D4C6EAB7FAB88AF99AFDF91CF917A
:100970001F910F9108950F931F93CF93DF93EC0175
:10098000CB011A821B821C821D821E821F82188646
:1009900019861A861B861C861D861E861F86188A47
:1009A000198A1A8A1B8A1C8A1D8A1E8A1F8A188E17
:1009B000198E1A8E1B8E1C8E1D8E1E8E1F8E18A2D7
:1009C00019A21AA21BA21CA21DA21EA21FA218A637
:1009D00019A61AA61BA61CA61DA61EA61FA618AA07
:1009E00019AA1AAA1BAA1CAA1DAA1EAA1FAA18AED7
:1009F00019AE6DE072E00E9487508C01FC0180818D
:100A000086548230A8F4B801CE01D1DD90930B0258
:100A100080930A020115110559F0B801CE01E4DEF8
:100A20006CE872E080E090E00E9487508C01F2CF89
:100A3000DF91CF911F910F910895CF93DF93EC0138
:100A400060E972E08CE39CE00E943E4860910A02FB
:100A500070910B024AE050E08CE39CE00E94F74862
:100A600068EA72E08CE39CE00E943E484A815B8128
:100A70006C817D8122E030E08CE39CE00E94E149C2
:100A80006EEA72E08CE39CE00E943E484E815F81FA
:100A90006885798522E030E08CE39CE00E94E149A2
:100AA00064EB72E08CE39CE00E943E484A855B85E3
:100AB0006C857D8522E030E08CE39CE00E94E1497A
:100AC0006AEB72E08CE39CE00E943E484A8D5B8DAD
:100AD0006C8D7D8D22E030E08CE39CE00E94E1494A
:100AE00060EC72E08CE39CE00E943E484E8D5F8D8E
:100AF00068A179A12AE030E08CE39CE00E94B04834
:100B000066EC72E08CE39CE00E943E484AA15BA147
:100B10006CA17DA12AE030E08CE39CE00E94B0480B
:100B20006CEC72E08CE39CE00E943E484EA15FA119
:100B300068A579A52AE030E08CE39CE00E94B048EB
:100B400062ED72E08CE39CE00E943E484EA55FA5FA
:100B500068A979A92AE030E08CE39CE00E94B048C3
:100B600068ED72E08CE39CE00E943E484AA55BA5DC
:100B70006CA57DA52AE030E08CE39CE00E94B048A3
:100B80006EED72E08CE39CE00E943E484AA95BA9AE
:100B90006CA97DA92AE030E08CE39CE00E94B0487B
:100BA00064EE72E08CE39CE00E943E484EA95FA98F
:100BB00068AD79AD2AE030E08CE39CE00E94B0485B
:100BC0006DE678E08CE39CE0DF91CF910C943E4899
:100BD00080910A0290910B020895FC016281738159
:100BE000848195810895FC01668177818085918556
:100BF0000895FC0162857385848595850895FC01BF
:100C000066857785808991890895FC016289738959
:100C1000848995890895FC0166897789808D918DF5
:100C20000895FC01668D778D80A191A10895FC0146
:100C300062A173A184A195A10895FC0166A177A189
:100C400080A591A50895FC0166A577A580A991A925
:100C50000895FC0162A973A984A995A90895FC01CE
:100C600066A977A980AD91AD0895FC011682109216
:100C70001009109211091092120910921309109282
:100C80000C0910920D0910920E0910920F09109282
:100C900008091092090910920A0910920B09109282
:100CA0000709109206091092FC081092FD08109294
:100CB000FE081092FF081092FB081092FA0808959F
:100CC000CF93DF938091140990911509892B51F4EA
:100CD00087E090E00E94B94BEC01C7DFD093150983
:100CE000C09314098091140990911509DF91CF9157
:100CF00008956091100970911109809112099091E5
:100D00001309089560910C0970910D0980910E09E5
:100D100090910F09089560910809709109098091D7
:100D20000A0990910B0908954093100950931109F5
:100D30006093120970931309089540930C0950931E
:100D40000D0960930E0970930F09089540930809E7
:100D50005093090960930A0970930B0908958091D3
:100D6000FA089091FB0808957093FB086093FA08C5
:100D70000895FC0171836083538342833583248308
:100D80000895CF93DF9383E00E94BE45EC0198DF86
:100D900081E0CD2B09F480E08093000982E00E947D
:100DA000BE45EC018DDF81E0CD2B09F480E080931E
:100DB00001098EE00E94BE45EC0182DF81E0CD2B6F
:100DC00009F480E0809302098FE00E94BE45EC01A7
:100DD00077DF81E0CD2B09F480E08093030982E185
:100DE0000E94BE45EC016CDF81E0CD2B09F480E070
:100DF0008093040983E10E94BE45EC0161DF81E03C
:100E0000CD2B09F480E080930509DF91CF910895FF
:100E1000CF92DF92EF92FF920F931F93CF93DF93C6
:100E2000EC018B01FB01808191811816190624F0D9
:100E300081E090E091838083F8018281938118168C
:100E4000190624F081E090E093838283F801848185
:100E500095811816190624F081E090E0958384832B
:100E60006FE678E0CE010E948E4A6AEE72E0CE0113
:100E70000E94E94A6EED73E0CE010E94E94A60915A
:100E800010097091110980911209909113090E9423
:100E9000C04C6B017C01F80160817181882777FD6E
:100EA0008095982F0E94C04C9B01AC01C701B601F0
:100EB0000E94254CAB01BC01CE010E946A4B6EEE34
:100EC00073E0CE010E94E94A60910C0970910D090E
:100ED00080910E0990910F090E94C04C6B017C011A
:100EE000F80162817381882777FD8095982F0E9491
:100EF000C04C9B01AC01C701B6010E94254CAB015F
:100F0000BC01CE010E946A4B6EEF73E0CE010E94DD
:100F1000E94A609108097091090980910A09909144
:100F20000B090E94C04C6B017C01F8016481758142
:100F3000882777FD8095982F0E94C04C9B01AC01BB
:100F4000C701B6010E94254CAB01BC01CE010E9435
:100F50006A4BCE01DF91CF911F910F91FF90EF90DF
:100F6000DF90CF900895662319F063E372E002C02A
:100F70006CE272E08CE39CE00C943E484093FC08E9
:100F80005093FD086093FE087093FF080895109237
:100F9000FC081092FD081092FE081092FF080895B8
:100FA0006EEE72E08CE39CE00E943E484091FC08AB
:100FB0005091FD086091FE087091FF082AE030E032
:100FC0008CE39CE00E94B0486DE678E08CE39CE006
:100FD0000C943E48CF92DF92EF92FF92CF93DF9333
:100FE000EC01888199811816190624F081E090E0BF
:100FF000998388838A819B811816190624F081E0E1
:1010000090E09B838A838C819D811816190624F0B9
:1010100081E090E09D838C836AEE72E08CE39CE03B
:101020000E943E486EED73E08CE39CE00E943E48D7
:101030006091100970911109809112099091130922
:101040000E94C04C6B017C0168817981882777FD03
:101050008095982F0E94C04C9B01AC01C701B6013E
:101060000E94254CAB01BC0122E030E08CE39CE007
:101070000E94E1496EEE73E08CE39CE00E943E48E2
:1010800060910C0970910D0980910E0990910F09E2
:101090000E94C04C6B017C016A817B81882777FDAF
:1010A0008095982F0E94C04C9B01AC01C701B601EE
:1010B0000E94254CAB01BC0122E030E08CE39CE0B7
:1010C0000E94E1496EEF73E08CE39CE00E943E4891
:1010D000609108097091090980910A0990910B09A2
:1010E0000E94C04C6B017C016C817D81882777FD5B
:1010F0008095982F0E94C04C9B01AC01C701B6019E
:101100000E94254CAB01BC0122E030E08CE39CE066
:101110000E94E149CE01DF91CF91FF90EF90DF90E7
:10112000CF903ECFCF93DF93EC0161EF72E08CE381
:101130009CE00E943E4865EF72E08CE39CE00E94D8
:101140003E4860910009CE010EDF69EF72E08CE34A
:101150009CE00E943E4860910109CE0104DF6DEFE2
:1011600072E08CE39CE00E943E4860910209CE014F
:10117000FADE61E073E08CE39CE00E943E486091FF
:101180000309CE01F0DE65E073E08CE39CE00E9491
:101190003E4860910409CE01E6DE69E073E08CE32D
:1011A0009CE00E943E4860910509CE01DCDECE0144
:1011B000DF91CF91F5CECF93DF93EC016FE678E02E
:1011C0000E948E4A6EEE72E0CE010E94E94A409182
:1011D000FC085091FD086091FE087091FF08CE0157
:1011E0000E943A4B6DE678E0CE010E94E94ACE01BA
:1011F000DF91CF91089521E0FC0126830895FC0141
:1012000016820895FC01868108955ADDF8DF80E09A
:1012100090E0089521E133E0FC0131832083EFC7A2
:10122000CF93DF93EC01F6DFCE01DF91CF910C94E9
:10123000BA4BCF93DF93EC01F2D781E193E099832E
:101240008883DF91CF910895CF93DF938091160922
:1012500090911709892B51F482E090E00E94B94BDC
:10126000EC01E7DFD0931709C093160980911609A6
:1012700090911709DF91CF9108958F929F92AF922D
:10128000BF92CF92DF92EF92FF920F931F930E9433
:1012900021271F921F9221E02F931F921F92812CD2
:1012A000912CA12CB12CC12CD12C76019701860157
:1012B000B701A6010E9453280F900F900F900F9036
:1012C0000F9080E090E01F910F91FF90EF90DF90E2
:1012D000CF90BF90AF909F908F9008952BE133E017
:1012E000FC01318320838BC7CF93DF93EC01F6DFC2
:1012F000CE01DF91CF910C94BA4BCF93DF93EC01E9
:101300008ED78BE193E099838883DF91CF91089505
:10131000CF93DF938091180990911909892B51F48B
:1013200082E090E00E94B94BEC01E7DFD09319090D
:10133000C09318098091180990911909DF91CF91F4
:1013400008958F929F92AF92BF92CF92DF92EF92C9
:10135000FF920F931F930E9421271F9221E02F934A
:101360001F921F921F92812C912CA12CB12CC12C69
:10137000D12C760197018601B701A6010E9453285E
:101380000F900F900F900F900F9080E090E01F91C2
:101390000F91FF90EF90DF90CF90BF90AF909F9014
:1013A0008F90089525E233E0FC013183208327C725
:1013B000CF93DF93EC01F6DFCE01DF91CF910C9458
:1013C000BA4BCF93DF93EC012AD785E293E0998360
:1013D0008883DF91CF910895CF93DF9380911A098D
:1013E00090911B09892B51F482E090E00E94B94B47
:1013F000EC01E7DFD0931B09C0931A0980911A0909
:1014000090911B09DF91CF9108958F929F92AF9297
:10141000BF92CF92DF92EF92FF920F931F930E94A1
:10142000212721E02F931F921F921F921F92812C40
:10143000912CA12CB12CC12CD12C760197018601C5
:10144000B701A6010E9453280F900F900F900F90A4
:101450000F9080E090E01F910F91FF90EF90DF9050
:10146000CF90BF90AF909F908F9008952FE233E080
:10147000FC0131832083C3C6CF93DF93EC01F6DFF9
:10148000CE01DF91CF910C94BA4BCF93DF93EC0157
:10149000C6D68FE293E099838883DF91CF91089538
:1014A000CF93DF9380911C0990911D09892B51F4F2
:1014B00082E090E00E94B94BEC01E7DFD0931D0978
:1014C000C0931C0980911C0990911D09DF91CF9157
:1014D000089529E333E0FC013183208390C6CF9344
:1014E000DF93EC01F6DFCE01DF91CF910C94BA4B84
:1014F0008F929F92AF92BF92CF92DF92EF92FF9224
:101500000F931F930E94212760E070E00E94B72F85
:10151000892BD1F40E9421271F921F9221E02F9343
:101520001F921F92812C912CA12CB12CC12CD12C5B
:10153000760197018601B701A6010E9453280F90FA
:101540000F900F900F900F9080E090E01F910F91FF
:10155000FF90EF90DF90CF90BF90AF909F908F90D3
:101560000895CF93DF93EC015AD689E393E09983F2
:101570008883DF91CF910895CF93DF9380911E09E7
:1015800090911F09892B51F482E090E00E94B94BA1
:10159000EC01E7DFD0931F09C0931E0980911E095B
:1015A00090911F09DF91CF91089523E433E0FC016E
:1015B0003183208324C6CF93DF93EC01F6DFCE0185
:1015C000DF91CF910C94BA4B8F929F92AF92BF92C2
:1015D000CF92DF92EF92FF920F931F930E942127E9
:1015E00061E070E00E94B72F892BD1F40E9421277F
:1015F0001F9221E02F931F921F921F92812C912CFA
:10160000A12CB12CC12CD12C760197018601B701F8
:10161000A6010E9453280F900F900F900F900F90EB
:1016200080E090E01F910F91FF90EF90DF90CF90BE
:10163000BF90AF909F908F900895CF93DF93EC0170
:10164000EED583E493E099838883DF91CF91089569
:10165000CF93DF938091200990912109892B51F438
:1016600082E090E00E94B94BEC01E7DFD0932109C2
:10167000C09320098091200990912109DF91CF9199
:1016800008952DE433E0FC0131832083B8C5CF9366
:10169000DF93EC01F6DFCE01DF91CF910C94BA4BD2
:1016A0008F929F92AF92BF92CF92DF92EF92FF9272
:1016B0000F931F930E94212762E070E00E94B72FD2
:1016C000892BD1F40E94212721E02F931F921F9292
:1016D0001F921F92812C912CA12CB12CC12CD12CAA
:1016E000760197018601B701A6010E9453280F9049
:1016F0000F900F900F900F9080E090E01F910F914E
:10170000FF90EF90DF90CF90BF90AF909F908F9021
:101710000895CF93DF93EC0182D58DE493E0998314
:101720008883DF91CF910895CF93DF938091220931
:1017300090912309892B51F482E090E00E94B94BEB
:10174000EC01E7DFD0932309C0932209809122099D
:1017500090912309DF91CF9108950E9465170E940F
:10176000D11663E573E08CE39CE00E943E48A8DA62
:1017700017DC80E090E008952BE533E0FC01318335
:1017800020833DC5CF93DF93EC01F6DFCE01DF91DF
:10179000CF910C94BA4BCF93DF93EC0140D58BE5FE
:1017A00093E099838883DF91CF910895CF93DF935E
:1017B0008091240990912509892B51F482E090E0D1
:1017C0000E94B94BEC01E7DFD0932509C0932409AF
:1017D0008091240990912509DF91CF910895CF92AE
:1017E000DF92EF92FF92CB011CDA6B017C010E9429
:1017F0006517B6010E943F1680E090E0FF90EF90E1
:10180000DF90CF90089525E633E0FC0131832083FB
:10181000F6C4CF93DF93EC01F6DFCE01DF91CF91D9
:101820000C94BA4BCF93DF93EC01F9D485E693E0A7
:1018300099838883DF91CF910895CF93DF9380912F
:10184000260990912709892B51F482E090E00E94AB
:10185000B94BEC01E7DFD0932709C09326098091AB
:10186000260990912709DF91CF9108958F929F9239
:10187000AF92BF92CF92DF92EF92FF925B01CB01CA
:10188000D6D96B017C01C501CCD94B015C010E940A
:101890006517A601B4010E948C1680E090E0FF90CD
:1018A000EF90DF90CF90BF90AF909F908F90089572
:1018B0002FE633E0FC0131832083A1C4CF93DF9373
:1018C000EC01F6DFCE01DF91CF910C94BA4BCF93B0
:1018D000DF93EC01A4D48FE693E099838883DF91B2
:1018E000CF910895CF93DF93809128099091290992
:1018F000892B51F482E090E00E94B94BEC01E7DFC4
:10190000D0932909C0932809809128099091290929
:10191000DF91CF9108958F929F92AF92BF92CF9215
:10192000DF92EF92FF92CF93DF9300D01F92CDB75B
:10193000DEB77B01CB018DD99B01AC01C7012983A7
:101940003A834B835C8373D94B015C01C70169D92E
:101950006B017C010E948B1729813A81A401B60199
:101960000E94AB1780E090E00F900F900F900F90C7
:10197000DF91CF91FF90EF90DF90CF90BF90AF902D
:101980009F908F90089529E733E0FC0131832083F5
:1019900036C4CF93DF93EC01F6DFCE01DF91CF9118
:1019A0000C94BA4BCF93DF93EC0139D489E793E0E1
:1019B00099838883DF91CF910895CF93DF938091AE
:1019C0002A0990912B09892B51F482E090E00E9422
:1019D000B94BEC01E7DFD0932B09C0932A09809122
:1019E0002A0990912B09DF91CF9108958F929F92B0
:1019F000AF92BF92CF92DF92EF92FF925B01CB0149
:101A000028D96B017C01C5010CD94B015C010E94F6
:101A10008B17A601B4010E94CF1780E090E0FF90E1
:101A2000EF90DF90CF90BF90AF909F908F900895F0
:101A300023E833E0FC0131832083E1C3CF93DF93BC
:101A4000EC01F6DFCE01DF91CF910C94BA4BCF932E
:101A5000DF93EC01E4D383E893E099838883DF91FB
:101A6000CF910895CF93DF9380912C0990912D0908
:101A7000892B51F482E090E00E94B94BEC01E7DF42
:101A8000D0932D09C0932C0980912C0990912D0998
:101A9000DF91CF9108958F929F92AF92BF92CF9294
:101AA000DF92EF92FF925B01CB01D3D86B017C01F7
:101AB000C501B7D84B015C010E948B17A601B40188
:101AC0000E94A41780E090E0FF90EF90DF90CF900D
:101AD000BF90AF909F908F9008952DE833E0FC0168
:101AE000318320838CC3CF93DF93EC01F6DFCE01EB
:101AF000DF91CF910C94BA4BCF93DF93EC018FD34E
:101B00008DE893E099838883DF91CF910895CF93F7
:101B1000DF9380912E0990912F09892B51F482E057
:101B200090E00E94B94BEC01E7DFD0932F09C093FE
:101B30002E0980912E0990912F09DF91CF91089560
:101B40004F925F926F927F928F929F92AF92BF92CD
:101B5000CF92DF92EF92FF920F931F93CF93DF9379
:101B6000CDB7DEB728970FB6F894DEBF0FBECDBF56
:101B70005B01CB016ED86B017C01C50164D82B01E0
:101B80003C01C5015AD89B01AC01C5012D833E83A0
:101B90004F8358874CD869837A838B839C83C50194
:101BA00040D84B015C010E948B17830172012D818B
:101BB0003E8149815A81B4010E94981880E090E0EA
:101BC00028960FB6F894DEBF0FBECDBFDF91CF9140
:101BD0001F910F91FF90EF90DF90CF90BF90AF904B
:101BE0009F908F907F906F905F904F90089527E91E
:101BF00033E0FC013183208302C3CF93DF93EC01F8
:101C0000F6DFCE01DF91CF910C94BA4BCF93DF93E7
:101C1000EC0105D387E993E099838883DF91CF9125
:101C20000895CF93DF938091300990913109892BEA
:101C300051F482E090E00E94B94BEC01E7DFD093D1
:101C40003109C09330098091300990913109DF91B9
:101C5000CF9108958F929F92AF92BF92CF92DF92D1
:101C6000EF92FF925B01CB010E9417066B017C0192
:101C7000C5010E9411064B015C010E94BD19A6011D
:101C8000B4010E94D01980E090E0FF90EF90DF90C7
:101C9000CF90BF90AF909F908F90089521EA33E04E
:101CA000FC0131832083ABC2CF93DF93EC01F6DFDD
:101CB000CE01DF91CF910C94BA4BCF93DF93EC011F
:101CC000AED281EA93E099838883DF91CF91089522
:101CD000CF93DF938091320990913309892B51F48E
:101CE00082E090E00E94B94BEC01E7DFD09333092A
:101CF000C09332098091320990913309DF91CF91DD
:101D0000089567EA73E08CE39CE00E943E480E94DD
:101D1000600637D80E94600605DA0E948B1740E003
:101D200050E068E070E00E94CF170E948B1740E0FF
:101D300050E069E070E00E94CF170E948B1740E0EE
:101D400050E06AE070E00E94CF170E948B1740E0DD
:101D500050E06DE070E00E94CF1780E090E00895C1
:101D600022EB33E0FC013183208349C2CF93DF9320
:101D7000EC01F6DFCE01DF91CF910C94BA4BCF93FB
:101D8000DF93EC014CD282EB93E099838883DF915F
:101D9000CF910895CF93DF938091340990913509C5
:101DA000892B51F482E090E00E94B94BEC01E7DF0F
:101DB000D0933509C0933409809134099091350945
:101DC000DF91CF9108950E94600604D980E090E0F1
:101DD00008952CEB33E0FC013183208310C2CF93B4
:101DE000DF93EC01F6DFCE01DF91CF910C94BA4B7B
:101DF000CF93DF93EC0113D28CEB93E0998388832C
:101E0000DF91CF910895CF93DF9380913609909120
:101E10003709892B51F482E090E00E94B94BEC0124
:101E2000E7DFD0933709C093360980913609909146
:101E30003709DF91CF91089562EC73E08CE39CE069
:101E40000E943E4862E172E08CE39CE00E943E48C2
:101E50000E946006A5D880E090E008952BEC33E066
:101E6000FC0131832083CBC1CF93DF93EC01F6DFFC
:101E7000CE01DF91CF910C94BA4BCF93DF93EC015D
:101E8000CED18BEC93E099838883DF91CF91089535
:101E9000CF93DF938091380990913909892B51F4C0
:101EA00082E090E00E94B94BEC01E7DFD093390962
:101EB000C09338098091380990913909DF91CF9109
:101EC0000895CF93DF93EB01CB010E94ED0520E055
:101ED00030E040E85FE30E94214C81110DC061EDCC
:101EE00073E08CE39CE00E943E480E94212740E082
:101EF00050E0BA010E94B327CE010E94F30520E012
:101F000030E040E85FE30E94214C81110DC061EE9A
:101F100073E08CE39CE00E943E480E94212740E051
:101F200050E0BA010E94CC27CE010E94F90520E0C2
:101F300030E040E85FE30E94214C81110DC061EF69
:101F400073E08CE39CE00E943E480E94212740E021
:101F500050E0BA010E94E6270E94600621D880E086
:101F600090E0DF91CF91089525E034E0FC013183CA
:101F7000208345C1CF93DF93EC01F6DFCE01DF91E3
:101F8000CF910C94BA4BCF93DF93EC0148D185E00D
:101F900094E099838883DF91CF910895CF93DF9365
:101FA00080913A0990913B09892B51F482E090E0AD
:101FB0000E94B94BEC01E7DFD0933B09C0933A098B
:101FC00080913A0990913B09DF91CF9108952F922A
:101FD0003F924F925F926F927F928F929F92AF92B9
:101FE000BF92CF92DF92EF92FF920F931F93CF9306
:101FF000DF93CDB7DEB728970FB6F894DEBF0FBEDC
:10200000CDBF1B01CB010E940B068B01C1010E94B9
:1020100005064B015C01C1010E94FF0569837A83BB
:102020008B839C83C1010E94F9056B017C01C10176
:102030000E94F3052B013C01C1010E94ED05AB019B
:10204000BC014D835E836F8378870E9421271F9296
:102050001F921F921F930F93A980BA809301820150
:102060004D815E816F8178850E9453280F900F907B
:102070000F900F900F9080E090E028960FB6F894A4
:10208000DEBF0FBECDBFDF91CF911F910F91FF90AB
:10209000EF90DF90CF90BF90AF909F908F907F9008
:1020A0006F905F904F903F902F9008952FE034E015
:1020B000FC0131832083A3C0CF93DF93EC01F6DFD3
:1020C000CE01DF91CF910C94BA4BCF93DF93EC010B
:1020D000A6D08FE094E099838883DF91CF91089513
:1020E000CF93DF9380913C0990913D09892B51F466
:1020F00082E090E00E94B94BEC01E7DFD0933D090C
:10210000C0933C0980913C0990913D09DF91CF91AA
:1021100008958F929F92AF92BF92CF92DF92EF92EB
:10212000FF920F931F93CF930E942127C1E0CF937B
:102130001F921F921F921F92812C912CA12CB12CC7
:10214000C12CD12C760197018601B701A6010E940E
:1021500053280E9421271F92CF93CF931F921F9243
:1021600097018601B701A6010E9453288DB79EB73B
:102170000A960FB6F8949EBF0FBE8DBF80E090E028
:10218000CF911F910F91FF90EF90DF90CF90BF9074
:10219000AF909F908F90089529E134E0FC01318346
:1021A00020832DC0CF93DF93EC01F6DFCE01DF91CA
:1021B000CF910C94BA4BCF93DF93EC0130D089E1EF
:1021C00094E099838883DF91CF910895CF93DF9333
:1021D00080913E0990913F09892B51F482E090E073
:1021E0000E94B94BEC01E7DFD0933F09C0933E0951
:1021F00080913E0990913F09DF91CF91089523E2AC
:1022000034E0FC013183208308958FEF9FEF089520
:1022100023E234E0FC01318320830C94BA4B23E2A7
:1022200034E0FC0131832083089520E934E0FC018F
:1022300031832083089520E934E0FC013183208339
:102240000C94BA4B20E934E0FC01318320830895DB
:10225000CF93DF93EB01209711F442DF17C06C316D
:10226000710511F4B3DF12C06D36710519F40E94C7
:10227000240911C06F36710511F44AD816C06037B1
:10228000710511F4A9D816C080E090E0C137D105DE
:1022900011F406D914C0C237D10511F46DD914C098
:1022A000C337D10511F4D4D914C0C437D10511F402
:1022B0003BDA14C0C837D10511F478DA14C0C93735
:1022C000D10511F4BADA14C0CA37D10511F40ADB0A
:1022D00014C0CD38D10511F470DB15C0CE38D1054E
:1022E00011F4C0DB16C0CF38D10511F410DC17C0D3
:1022F000C039D10511F495DC18C0C13AD10519F4E3
:10230000DF91CF91E5CCC53BD10519F4DF91CF9199
:1023100041CDC63BD10519F4DF91CF9174CDC73BB8
:10232000D10519F4DF91CF91B3CDC83BD10519F494
:10233000DF91CF9133CEDF91CF9108956F927F924D
:102340009F92AF92BF92CF92DF92EF92FF920F9344
:102350001F93CF93DF9300D01F92CDB7DEB78C01D0
:102360003B01B3D565E070E096D17C01C3010E94CA
:102370002F06AB01BC0149835A836B837C830E9487
:10238000600649815A816B817C810E94BE07C3012E
:102390000E94E805892B09F40EC1C3010E94E805DB
:1023A000019709F408C1C3010E94E8058F36910521
:1023B00009F401C1C3010E94E8058037910509F4C1
:1023C000FAC0C3010E94E8058137910509F4F3C002
:1023D000C3010E94E8058237910509F4ECC0C301EE
:1023E0000E94E8058337910509F4E5C0C3010E9406
:1023F000E8058437910509F4DEC0912C0E9460063F
:102400000E940209882359F1C3010E94E8058D3614
:10241000910529F1C3010E94E80588379105F9F07B
:10242000C3010E94E80589379105C9F0C3010E94E4
:10243000E8058A37910599F0C3010E94E805853BBC
:10244000910569F0C3010E94E805863B910539F0CA
:10245000C3010E94E805873B910509F0AFC06114F4
:10246000710429F0C3010E94E805019619F468E798
:1024700074E0A6C0C3010E94E805BC01C801E8DE03
:102480005C01009789F468E774E08CE39CE00E94AB
:102490003E480E9460060E94D0076BE374E08CE324
:1024A0009CE00E94494894C068E874E08CE39CE09A
:1024B0000E943E480E9460060E94D0070E9460066B
:1024C00060E070E00E94B406C12CD12C61E574E09C
:1024D0008CE39CE00E943E484AE050E0B6018CE369
:1024E0009CE00E94F7486EE574E08CE39CE00E945B
:1024F0003E484AE050E0B7018CE39CE00E94F74878
:102500006DE678E08CE39CE00E943E488FEFC81AAD
:10251000D80AA1E0CA16D10451F06CE774E08CE34C
:102520009CE00E943E480E9460060E94D007D501B0
:10253000ED91FC910480F581E02DB301C501199561
:102540000E9460060E94AF068C0165E674E08CE391
:102550009CE00E943E484AE050E0B8018CE39CE0D9
:102560000E94F7486DE678E08CE39CE00E943E48CC
:10257000CE14DF0424F40115110509F0A7CF8CE374
:102580009CE00E94E645181619062CF48CE39CE0AA
:102590000E94FF45F4CF01151105E9F09920F1F0F3
:1025A00094D464E070E077D00197C1F40E94600693
:1025B0000E94FB0813C09924939420CF64E774E031
:1025C0008CE39CE00E943E480E9460060E94D00777
:1025D0008FEF9FEF12C064E874E002C060E874E01F
:1025E0008CE39CE00E943E480E9460060E94D00757
:1025F0000E9460060E94C707C8010F900F900F90BD
:102600000F90DF91CF911F910F91FF90EF90DF908E
:10261000CF90BF90AF909F907F906F900895E09182
:10262000DB0CF091DC0C80E090E0309749F00296F2
:1026300020813181820F931F0280F381E02DF5CF3D
:1026400008950F931F93CF93DF931F921F92CDB7DF
:10265000DEB78091D90C9091DA0C8E010F5F1F4F7D
:10266000009729F40F5D1C401A83098309C0081BD9
:10267000190B1A830983D3DF800F911F9A838983F3
:1026800089819A810F900F90DF91CF911F910F91C7
:10269000089519D67EC5660F771F605C764FFB01E3
:1026A000808191810895FC018281938108951F9317
:1026B000CF93DF93EB01CC0FDD1FCE010E941C51A5
:1026C000182FCE0101960E941C51482F50E060E067
:1026D00070E0762F652F542F4427812F90E0840FD0
:1026E000951FDF91CF911F9108950F931F93CF9363
:1026F000DF931F92CDB7DEB78B01000F111F642F40
:10270000C80159830E9424515981652FC80101963F
:102710000E94245180E090E00F90DF91CF911F91B3
:102720000F910895603E710508F00BC2FB01EE5851
:10273000FF4F0C94284E81E090E0909341098093E4
:102740004009089510924309109242090895109289
:10275000450910924409089581E090E0909347095B
:1027600080934609089510924909109248090895E6
:1027700083E090E090934B0980934A09089588E79D
:1027800090E09093570980935609089588E790E068
:102790009093590980935809089588E790E09093A1
:1027A0005B0980935A09089510925F0910925E099F
:1027B00008951092610910926009089581E090E0F7
:1027C00090936309809362090895109265091092AD
:1027D000640908951092670910926609089510928D
:1027E000690910926809089510926B0910926A099C
:1027F000089510926D0910926C09089510926F0956
:1028000010926E090895109273091092720908953A
:102810001092750910927409089510927709109218
:102820007609089510927F0910927E0908951092FA
:1028300081091092800908951092830910928209EB
:10284000089581E090E09093890980938809089524
:1028500081E090E090938B0980938A0908958CE23F
:1028600091E0909393098093920908958CE291E00E
:10287000909395098093940908958CE291E0909348
:10288000970980939609089510929B0910929A09CE
:10289000089510929D0910929C09089510929F0925
:1028A00010929E0908951092A7091092A609089502
:1028B0001092A9091092A809089581E090E09093E0
:1028C000AB098093AA09089585E090E09093AF0941
:1028D0008093AE09089585E090E09093B1098093CC
:1028E000B009089589E190E09093B3098093B2090B
:1028F000089580E291EA9093BB098093BA09089504
:1029000080E291EA9093BD098093BC09089580E22A
:1029100091EA9093BF098093BE09089580E291EAFD
:102920009093C3098093C209089580E291EA90933D
:10293000C5098093C409089580E291EA9093C7097C
:102940008093C609089580E09AE59093CF0980931B
:10295000CE09089580E09AE59093D1098093D0093B
:10296000089580E094E89093D3098093D209089564
:102970001092630A1092620A08951092650A1092EA
:10298000640A08951092670A1092660A08951092D8
:102990000B0A10920A0A089510920D0A10920C0A5E
:1029A000089510920F0A10920E0A08951092130AB9
:1029B0001092120A08951092150A1092140A08959E
:1029C0001092170A1092160A089585E090E09093ED
:1029D0001F0A80931E0A089585E090E09093210AD3
:1029E0008093200A089585E090E09093230A8093D5
:1029F000220A089588E390E09093270A8093260A9C
:102A0000089588E390E09093290A8093280A089516
:102A100088E390E090932B0A80932A0A089585E03A
:102A200090E09093330A8093320A089585E090E015
:102A30009093350A8093340A089585E090E090934E
:102A4000370A8093360A089510923B0A10923A0A88
:102A5000089510923D0A10923C0A089510923F0A80
:102A600010923E0A08951092470A1092460A08955D
:102A70001092490A1092480A089510924B0A109237
:102A80004A0A08951092D30A1092D20A08958CE34C
:102A900090E09093D50A8093D40A089581E090E065
:102AA0009093D70A8093D60A08951092DB0A109269
:102AB000DA0A08958CE390E09093DD0A8093DC0AB3
:102AC000089581E090E09093DF0A8093DE0A0895F4
:102AD0001092E70A1092E60A08958CE390E0909332
:102AE000E90A8093E80A089581E090E09093EB0A68
:102AF0008093EA0A08951092EF0A1092EE0A089560
:102B00008CE390E09093F10A8093F00A089581E0BD
:102B100090E09093F30A8093F20A08951092FB0AD2
:102B20001092FA0A08958CE390E09093FD0A809346
:102B3000FC0A089581E090E09093FF0A8093FE0ADA
:102B40000895FB01EE0FFF1FE05CF64F118210822B
:102B50000895683671050CF050C0653671050CF0AB
:102B60008AC06C32710554F5693271050CF083C06E
:102B70006831710594F46F3071050CF07CC06630DB
:102B8000710544F4623071050CF075C0672B09F0D3
:102B900074C071C06B5071096BC0623271053CF436
:102BA0006F3171050CF067C06951710961C06452E1
:102BB00071096230710508F060C05DC06A3371054B
:102BC0007CF4673371050CF056C06D3271050CF45E
:102BD00054C0603371050CF44EC06353710948C092
:102BE000643471053CF4613471050CF044C06D53DC
:102BF00071093EC0675471093BC060397105F4F436
:102C00006D387105C4F56637710564F46337710575
:102C100094F5693671058CF16C36710564F16F5667
:102C2000710926C06038710534F46D3771051CF5E3
:102C3000695771091DC0635871091AC0603D71055B
:102C400064F46D3C7105BCF461397105B4F064390C
:102C500071058CF0695C71090BC06A3D710534F433
:102C6000673D710544F4635D710902C06D5D7109D2
:102C70006330710510F481E0089580E008950F93AA
:102C80001F93CF93DF93EB0164DF8823C1F1FE0133
:102C9000EE0FFF1FE05CF64F0081118164E974E0E4
:102CA0008CE39CE00E943E4865EC73E08CE39CE082
:102CB0000E943E4868E974E08CE39CE00E943E4834
:102CC0004AE050E0BE018CE39CE00E94F74865ECCE
:102CD00073E08CE39CE00E943E486AE974E08CE378
:102CE0009CE00E943E484AE050E0B8018CE39CE042
:102CF0000E94F7480E9460060E94D00706C06CE957
:102D000074E08CE39CE00E943E4880E090E0DF911C
:102D1000CF911F910F910895EF92FF920F931F9300
:102D2000CF93DF931F921F92CDB7DEB77C018B014B
:102D3000FC01828193818F30F7E29F072CF401968A
:102D4000F7019383828303C0F70113821282B801D3
:102D5000C70149835A83FDDE49815A81882371F076
:102D6000F801EE0FFF1FE05CF64F51834083B8017E
:102D7000C701BBDCB801C70182DF06C06CE974E0A3
:102D80008CE39CE00E943E48C70183DC80E090E039
:102D90000F900F90DF91CF911F910F91FF90EF90C7
:102DA00008950F931F93CF93DF938C01C0E0D0E081
:102DB000BE01C801CEDE882319F0BE01C8015FDF65
:102DC0002196C13ED105A1F7DF91CF911F910F91BF
:102DD0000895EF92FF920F931F93CF93DF937C019F
:102DE00000E419E0C0E0D0E0BE01C701B2DE8823F4
:102DF00089F0BE01C7015BDCF801918380830196F5
:102E000049F4BE01C7018EDCF80140815181BE0149
:102E1000C7016BDC21960E5F1F4FC13ED10521F724
:102E2000DF91CF911F910F91FF90EF900895EF9256
:102E3000FF920F931F93CF93DF937C0100E419E07F
:102E4000C0E0D0E0BE01C70184DE882331F0F80184
:102E500040815181BE01C70148DC21960E5F1F4FA2
:102E6000C639D10579F7DF91CF911F910F91FF906E
:102E7000EF9008950F931F93CF93DF938C01C0E0E1
:102E8000D0E0BE01C80165DE882319F0BE01C8018B
:102E900049DC2196C13ED105A1F7DF91CF911F9169
:102EA0000F910895CF93DF93EC0160E070E0FFDBBA
:102EB0001816190634F0CE01DDDFCE01DF91CF9177
:102EC000B6CFCE01DF91CF9184CFCF93DF938091A6
:102ED000020B9091030B892B51F484E090E00E9447
:102EE000B94BEC01DFDFD093030BC093020B809151
:102EF000020B9091030BDF91CF91089521E030E018
:102F0000FC01E20FF31F108210AE2F5F3F4F2533FD
:102F10003105B1F70895CF93DF938091040B909121
:102F2000050B892B51F480E790E00E94B94BEC012E
:102F3000E5DFD093050BC093040B8091040B9091B7
:102F4000050BDF91CF910895862F642F0E94504585
:102F500080E090E00895DC01CB01642FFC01319703
:102F6000F497D0F422303105B8F448E3429FF001E1
:102F7000439FF00D1124E80FF91FEA0FFB1F41E0FA
:102F80004083232B19F40E94894503C0752F0E94AA
:102F9000384480E090E0089581E090E00895EF9259
:102FA000FF920F931F93CF93DF93162FE72EEA0123
:102FB000209751F4862F0E94BE4521E000E0019742
:102FC00009F020E0F22E0BC04130510531F4862F7C
:102FD0000E941344F82E092F02C0F12C00E0229722
:102FE000A8F56EEB74E08CE39CE00E943E4865EC33
:102FF00073E08CE39CE00E943E4868E974E08CE357
:103000009CE00E943E484AE050E0612F7E2D8CE318
:103010009CE00E94F74865EC73E08CE39CE00E9422
:103020003E486AE974E08CE39CE00E943E484AE036
:1030300050E06F2D702F8CE39CE00E94F7480E94B7
:1030400060060E94D00780E090E002C081E090E03E
:10305000DF91CF911F910F91FF90EF900895EF9224
:10306000FF920F931F93CF93DF937C01C1E0D0E0D9
:1030700087010C0F1D1FF8018081882321F162EC6C
:1030800074E08CE39CE00E943E4866EC74E08CE3C4
:103090009CE00E943E484AE050E0BE018CE39CE088
:1030A0000E94F7486DE678E08CE39CE00E943E4881
:1030B00060E08C2F0E94894540E050E0BE01C701CE
:1030C0006EDFF8011082F80180AD882329F162ECEF
:1030D00074E08CE39CE00E943E486DED74E08CE36C
:1030E0009CE00E943E484AE050E0BE018CE39CE038
:1030F0000E94F7486DE678E08CE39CE00E943E4831
:1031000060E070E08C2F0E94384441E050E0BE0146
:10311000C70145DFF80110AE2196C533D10509F08E
:10312000A7CFDF91CF911F910F91FF90EF9008955E
:103130004F925F926F927F928F929F92AF92BF92C7
:10314000CF92DF92EF92FF920F931F93CF93DF9373
:10315000EC015B0149019601FEDEC801B7010E9446
:1031600080439601A401B501CE01F5DE80E090E038
:10317000DF91CF911F910F91FF90EF90DF90CF9053
:10318000BF90AF909F908F907F906F905F904F9087
:103190000895CF93DF93EC012AEC30E04BEC50E044
:1031A00069EC70E0ADD02EEC30E04FEC50E06DEC0F
:1031B00070E0CE010C96A4D024ED30E045ED50E057
:1031C00063ED70E0CE0148969BD028ED30E049EDEC
:1031D00050E067ED70E0CE01849692D02EED30E0A5
:1031E0004FED50E06DED70E0CE01C096DF91CF91D4
:1031F00087C0CF92DF92EF92FF920F931F93CF93EE
:10320000DF93CDB7DEB72C970FB6F894DEBF0FBEB5
:10321000CDBF8C017C016C018CE3C80ED11CC701B1
:103220006BD08CE0E80EF11CEC14FD04C1F7CE016C
:10323000019662D08CE0FE013196D80101900D928A
:103240008A95E1F7CE01019657D08CE0FE013196C8
:10325000D8011C9601900D928A95E1F7CE01019656
:103260004BD08CE0FE013196D801589601900D921A
:103270008A95E1F7CE0101963FD08CE0FE013196B0
:10328000D801949601900D928A95E1F7CE010196AE
:1032900033D08CE0FE013196D801D09601900D928A
:1032A0008A95E1F7C80175DF2C960FB6F894DEBF5A
:1032B0000FBECDBFDF91CF911F910F91FF90EF9087
:1032C000DF90CF900895CF93DF938091060B90917C
:1032D000070B892B51F48CE390E00E94B94BEC0171
:1032E00088DFD093070BC093060B8091060B90915B
:1032F000070BDF91CF910895FC0111821082089590
:10330000CF92DF92EF92FF920F931F93CF93DF93B1
:103310001F921F92CDB7DEB76C017A0189016983D4
:103320007A83D3DD69817A81B6D9F601918380836E
:10333000CCDDB701B0D921E0019709F020E0F6011A
:103340002287C3DDB801A7D9AC01662757FD609578
:10335000762FF60142835383648375831682178226
:10336000108611860F900F90DF91CF911F910F91D2
:10337000FF90EF90DF90CF90089580910E0B909189
:103380000F0B892B41F481E090E00E94B94B9093A0
:103390000F0B80930E0B80910E0B90910F0B0895E5
:1033A000CB01BA018430910529F0059751F48BE0E7
:1033B0009BE002C088E09BE00E94A44280E090E095
:1033C000089581E090E0089588E09BE00E945542D6
:1033D0008BE09BE00C9455428F929F92AF92BF92EC
:1033E000CF92DF92EF92FF920F931F93CF93DF93D1
:1033F000EC0160EB77E08CE39CE00E943E486EEDD0
:1034000073E08CE39CE00E943E486E0185E8C81A98
:103410008EEFD80AC6010E94A43C0E94C04C4B010A
:103420005C01FE01ED5BFD4F6081718182819381C2
:103430000E94C04C9B01AC01C501B4010E94254C07
:10344000AB01BC0122E030E08CE39CE00E94E1494A
:103450006EEE73E08CE39CE00E943E487E018BE6BA
:10346000E81A8EEFF80AC7010E94A43C0E94C04CE3
:103470004B015C01FE01E95BFD4F6081718182813E
:1034800093810E94C04C9B01AC01C501B4010E9414
:10349000254CAB01BC0122E030E08CE39CE00E94B3
:1034A000E1496EEF73E08CE39CE00E943E488E01A0
:1034B00001551E4FC8010E94A43C0E94C04C4B0104
:1034C0005C01C55BDD4F688179818A819B810E94A7
:1034D000C04C9B01AC01C501B4010E94254CAB015D
:1034E000BC0122E030E08CE39CE00E94E1490E94B4
:1034F00060060E94D0076CEA77E08CE39CE00E94B3
:103500003E486EED73E08CE39CE00E943E48C601AD
:103510000E94C33CAB01BC012AE030E08CE39CE09C
:103520000E94B0486EEE73E08CE39CE00E943E483F
:10353000C7010E94C33CAB01BC012AE030E08CE330
:103540009CE00E94B0486EEF73E08CE39CE00E9428
:103550003E48C8010E94C33CAB01BC012AE030E0F8
:103560008CE39CE00E94B0480E946006DF91CF91FE
:103570001F910F91FF90EF90DF90CF90BF90AF9091
:103580009F908F900C94D007CF92DF92EF92FF9292
:103590000F931F93CF93DF9300D000D0CDB7DEB74A
:1035A0007B016A018C0107531E4F64EC77E0C80170
:1035B0000E94E94A65EC73E0C8010E94E94AF701FC
:1035C0006081C8010E94F84AB601C8010E940B4BF5
:1035D0000E946006BC01CE0101960E94DB08BE017C
:1035E0006F5F7F4FC8010E94E34ACE0101960E949F
:1035F000274A26960FB6F894DEBF0FBECDBFDF91E7
:10360000CF911F910F91FF90EF90DF90CF90089591
:103610000F931F93CF93DF93EB018A0160EC77E068
:103620008CE39CE00E943E4865EC73E08CE39CE0F8
:103630000E943E4868818CE39CE00E943F484AE03B
:1036400050E0B8018CE39CE00E94F7480E946006BD
:10365000DF91CF911F910F910C94D007CF92DF9201
:10366000EF92FF920F931F93CF93DF936C018B0127
:103670007A01CB010E94643C811103C0C0E0D0E01C
:1036800002C0C2E0D0E0C8010E946E3C882311F065
:10369000C3E0D0E0C8010E94693C882311F0C4E077
:1036A000D0E0C8010E94733C882311F0C6E0D0E04E
:1036B000F701808191818C179D0721F081E01C1614
:1036C0001D060CF080E0F701D183C083882361F0F0
:1036D000AE01B801C601DF91CF911F910F91FF900C
:1036E000EF90DF90CF9050CFDF91CF911F910F914E
:1036F000FF90EF90DF90CF900895CF93DF93EC0190
:1037000062EC74E08CE39CE00E943E4863EF74E05E
:103710008CE39CE00E943E48CE0140960E94413CD2
:10372000AB01BC012AE030E08CE39CE00E94B04891
:103730006DEF74E08CE39CE00E943E48CE0185581A
:103740009E4F0E94A43CAB01BC012AE030E08CE318
:103750009CE00E94B0486DE678E08CE39CE00E941B
:103760003E4862EC74E08CE39CE00E943E4867E0D7
:1037700075E08CE39CE00E943E48CE0187579F4F46
:103780000E94413CAB01BC012AE030E08CE39CE0AC
:103790000E94B04861E175E08CE39CE00E943E48E5
:1037A000CE018B569E4F0E94A43CAB01BC012AE087
:1037B00030E08CE39CE00E94B0486DE678E08CE35A
:1037C0009CE00E943E4862EC74E08CE39CE00E9426
:1037D0003E486BE175E08CE39CE00E943E48CE01E0
:1037E0008E5F9E4F0E94413CAB01BC012AE030E05D
:1037F0008CE39CE00E94B04865E275E08CE39CE0BD
:103800000E943E48CE0181559E4F0E94A43CAB01D0
:10381000BC012AE030E08CE39CE00E94B0486DE6F9
:1038200078E08CE39CE0DF91CF910C943E480F93BD
:103830001F93CF93DF93FC01E353FE4F208131812F
:103840002115310581F1EC01CF52DE4F688179817C
:103850008C0107531E4F62177307F0F4C8010E94D2
:10386000AB4B8A3099F08D3039F46DE678E08CE31B
:103870009CE00E943E480AC068817981C8010E948C
:10388000AB4B682F8CE39CE00E943F488881998174
:1038900001969983888307C06FE678E0C8010E948B
:1038A000A34A19821882DF91CF911F910F91089539
:1038B0000F931F93CF93DF93EC018C0103531E4FA3
:1038C000F80180819181892B19F0CE01B0DFF8CF0A
:1038D000DF91CF911F910F9108952F923F924F92B8
:1038E0005F926F927F928F929F92AF92BF92CF9290
:1038F000DF92EF92FF920F931F93CF93DF9300D04D
:103900001F92CDB7DEB79C838B833B012A0119013F
:10391000BA82A982F4018081882309F416C162EC7D
:1039200074E08CE39CE00E943E486FE275E08CE31B
:103930009CE00E943E48C2010E94A43CAB01BC0135
:103940002AE030E08CE39CE00E94B0486DE375E033
:103950008CE39CE00E943E48F701408151816281E6
:1039600073812AE030E08CE39CE00E94B04868E478
:1039700075E08CE39CE00E943E48C3010E94413CFC
:10398000AB01BC012AE030E08CE39CE00E94B0482F
:1039900063E575E08CE39CE00E943E48F8014081BD
:1039A0005181628173812AE030E08CE39CE00E94C7
:1039B000B0486EE575E08CE39CE00E943E48C30190
:1039C0000E945F3C682F70E04AE050E08CE39CE08E
:1039D0000E94F74868E675E08CE39CE00E943E4850
:1039E000EB81FC81E15BFD4F4081518162817381FC
:1039F00022E030E08CE39CE00E94E1496BE775E057
:103A00008CE39CE00E943E48F1014081518162813B
:103A1000738122E030E08CE39CE00E94E14969E898
:103A200075E08CE39CE00E943E48E981FA81408188
:103A300051816281738122E030E08CE39CE00E943E
:103A4000E14961E975E08CE39CE00E943E48F401A5
:103A5000608170E04AE050E08CE39CE00E94F7480F
:103A60006DE678E08CE39CE00E943E48F1018080A6
:103A70009180A280B38020E030E0A901C501B401AB
:103A80000E94704D18167CF4E981FA812081318101
:103A900042815381C501B4010E94BC4BF101608396
:103AA000718382839383C3010E945F3C811106C0AE
:103AB000C3010E945F3C811138C00EC0F7018080B5
:103AC0009180A280B380C2010E94C33C6815790531
:103AD0008A059B0574F0ECCFF70180809180A2806D
:103AE000B380C2010E94C33C86169706A806B90699
:103AF000E4F4F10180809180A280B38020E030E086
:103B00004AEF56E4C501B4010E94214C87FF0DC065
:103B100020E030E040E85FE3C501B4010E94BD4B06
:103B2000F1016083718382839383C2010E94C33C4D
:103B3000F7016083718382839383C3010E94413CB8
:103B4000F8016083718382839383F6018081918180
:103B5000892BF1F0C2010E94A43CAB01BC01C3015E
:103B60000F900F900F900F90DF91CF911F910F91B9
:103B7000FF90EF90DF90CF90BF90AF909F908F908D
:103B80007F906F905F904F903F902F900C94483CA7
:103B90000F900F900F900F90DF91CF911F910F9189
:103BA000FF90EF90DF90CF90BF90AF909F908F905D
:103BB0007F906F905F904F903F902F9008952F923D
:103BC0003F924F925F926F927F928F929F92AF92AD
:103BD000BF92CF92DF92EF92FF920F931F93CF93FA
:103BE000DF93EC0172D96FE670E00E944B13FE0187
:103BF000E758FD4F9183808368D960E770E00E94A9
:103C00004B13FE01E558FD4F918380835ED961E738
:103C100070E00E944B13FE01E358FD4F91838083B7
:103C200054D969E770E00E944B137E0121E8E21A43
:103C30002DEFF20ABC01882777FD8095982F0E940E
:103C4000C04CF70160837183828393833ED96AE716
:103C500070E00E944B138E010D571D4FBC01882749
:103C600077FD8095982F0E94C04CF8016083718386
:103C7000828393832AD96BE770E00E944B136C0117
:103C800020E030E048EC52E4F701608171818281EC
:103C900093810E94254C2B013C0120E030E048EC50
:103CA00052E4F80160817181828193810E94254CE8
:103CB0004B015C01B601882777FD8095982F0E9403
:103CC000C04C20E030E048EC52E40E94254C1B013F
:103CD0006C012AE037ED43E25CE3B201C3010E94CC
:103CE000704D18167CF420E030E046EC52E4B2014E
:103CF000C3010E94214C87FD0AC050E040E036EC31
:103D000022E409C05AE047ED33E22CE304C0542D0D
:103D1000452D362D272D852F942FA32FB22FF70158
:103D200080839183A283B3832AE037ED43E25CE38F
:103D3000B401C5010E94704D18167CF420E030E0FB
:103D400046EC52E4B401C5010E94214C87FD0AC033
:103D500050E040E036EC22E409C05AE047ED33E29F
:103D60002CE304C0582D492D3A2D2B2D852F942F4F
:103D7000A32FB22FF80180839183A283B3832AE01B
:103D800037ED43E25CE3B101C6010E94704D1816A5
:103D90007CF420E030E046EC52E4B101C6010E9420
:103DA000214C87FD0AC050E040E036EC22E409C017
:103DB0005AE047ED33E22CE304C0522D432D3C2D55
:103DC0002D2D852F942FA32FB22FFE01E957FD4FE4
:103DD00080839183A283B38378D869E670E00E94E0
:103DE0004B13FE01E257FD4F918380836ED86AE644
:103DF00070E00E944B13FE01E057FD4F91838083DA
:103E000064D86BE670E00E944B13FE01EE56FD4F46
:103E1000918380835AD863E770E00E944B13FE01C0
:103E2000EC56FD4F9183808350D864E770E00E9488
:103E30004B13FE01EA56FD4F9183808346D865E718
:103E400070E00E944B13FE01E856FD4F9183808382
:103E50003CD86DE770E00E944B13FE01E656FD4F23
:103E60009183808332D86EE770E00E944B13FE018D
:103E7000E456FD4F9183808328D86FE770E00E945D
:103E80004B13FE01E256FD4F918380831ED863E8F9
:103E900070E00E944B13FE01E056FD4F918380833A
:103EA00014D864E870E00E944B13FE01EE55FD4FFC
:103EB000918380830AD865E870E00E944B13FE016D
:103EC000EC55FD4F9183808300D865E670E00E9439
:103ED0004B13FE01E557FD4F019719F481E08083F4
:103EE00001C010820E94651766E670E00E944B13C5
:103EF000FE01E457FD4F019719F481E0808301C072
:103F000010820E94651767E670E00E944B13C3574A
:103F1000DD4F019719F481E0888301C01882DF9199
:103F2000CF911F910F91FF90EF90DF90CF90BF90B6
:103F3000AF909F908F907F906F905F904F903F9049
:103F40002F900895CF93DF93EC01FC01E655FD4FD0
:103F500081E08083CE0140960E94D739CE018757F9
:103F60009F4F0E94D739CE018E5F9E4F0E94D73956
:103F700064E670E080E090E0DF91CF910C948043A4
:103F8000CF93DF93EC01FC01E655FD4F1082409684
:103F90000E94EC39CE0187579F4F0E94EC39CE0129
:103FA0008E5F9E4FDF91CF910C94EC39CF93DF93CE
:103FB000EC01FC01E655FD4F1082E558F1098081C6
:103FC000811104C0CE0140960E94EC39FE01EA5DE9
:103FD000FD4F8081811105C0CE0187579F4F0E9400
:103FE000EC39FE01E95DFD4F8081811105C0CE01F4
:103FF0008E5F9E4F0E94EC3964E670E080E090E0B6
:10400000DF91CF910C948043CF93DF93EC01FC01BF
:10401000EB5DFD4F20814096222319F00E94D73995
:1040200002C00E94EC39FE01EA5DFD4F2081CE0105
:1040300087579F4F222319F00E94D73902C00E9450
:10404000EC39FE01E95DFD4F2081CE018E5F9E4F70
:10405000222321F0DF91CF910C94D739DF91CF91BA
:104060000C94EC392F923F924F925F926F927F9215
:104070008F929F92AF92BF92CF92DF92EF92FF9278
:104080000F931F93CF93DF93EC010E94651763E3B7
:1040900070E00E944B133E0120E2621A2EEF720A7A
:1040A00021E0892B09F420E0F30120830E946517A9
:1040B00064E370E00E944B132E01FFE14F1AFEEF04
:1040C0005F0A21E0892B09F420E0F20120830E949D
:1040D000651765E370E00E944B131E01FEE12F1A85
:1040E000FEEF3F0A21E0892B09F420E0F101208353
:1040F0000E94651767E470E00E944B13FE01ED51CA
:10410000FE4FAA2797FDA095BA2F80839183A283A3
:10411000B3830E94651768E470E00E944B13FE01B0
:10412000E951FE4FAA2797FDA095BA2F808391836E
:10413000A283B3830E94651769E470E00E944B1369
:10414000FE01E551FE4FAA2797FDA095BA2F808367
:104150009183A283B3830E9465176DE370E00E9490
:104160004B13FE01E151FE4FAA2797FDA095BA2FF0
:1041700080839183A283B3830E9465176EE370E00E
:104180000E944B13FE01ED50FE4FAA2797FDA0950C
:10419000BA2F80839183A283B3830E9465176FE354
:1041A00070E00E944B13FE01E950FE4FAA2797FDD5
:1041B000A095BA2F80839183A283B3830E94651751
:1041C00061E470E00E944B13FE01E550FE4FAA2708
:1041D00097FDA095BA2F80839183A283B3830E9419
:1041E000651762E470E00E944B13FE01E150FE4F40
:1041F000AA2797FDA095BA2F80839183A283B383CA
:104200000E94651763E470E00E944B13FE01ED5FAE
:10421000FD4FAA2797FDA095BA2F80839183A28393
:10422000B3830E94651769E270E00E944B13FE01A0
:10423000E95FFD4FAA2797FDA095BA2F8083918350
:10424000A283B3830E9465176AE270E00E944B1359
:10425000FE01E55FFD4FAA2797FDA095BA2F808349
:104260009183A283B3830E9465176BE270E00E9482
:104270004B13FE01E15FFD4FAA2797FDA095BA2FD2
:1042800080839183A283B3830E9465176FE170E0FE
:104290000E944B13FE01ED5EFD4F21E0019709F0F6
:1042A00020E020830E94651760E270E00E944B13BB
:1042B000FE01EC5EFD4F21E0019709F020E0208334
:1042C0000E94651761E270E00E944B13FE01EB5EF5
:1042D000FD4F21E0019709F020E020830E9465173F
:1042E00065E170E00E944B13FE01EF5CFD4F21E0A1
:1042F000892B09F420E020830E94651766E170E0B5
:104300000E944B13FE01EE5CFD4F21E0892B09F466
:1043100020E020830E94651767E170E00E944B1344
:10432000FE01ED5CFD4F21E0892B09F420E02083A4
:104330000E94651769E170E00E944B13FE01EC5C7E
:10434000FD4F21E0019709F020E020830E946517CE
:104350006AE170E00E944B13FE01EB5CFD4F21E02F
:10436000019709F020E020830E9465176BE170E05F
:104370000E944B13FE01EA5CFD4F21E0019709F01A
:1043800020E020830E9465176BE070E00E944B13D1
:10439000FE01E95CFD4FAA2797FDA095BA2F808307
:1043A0009183A283B3830E9465176BE070E00E9443
:1043B0004B13FE01E55CFD4FAA2797FDA095BA2F90
:1043C00080839183A283B3830E9465176BE070E0C2
:1043D0000E944B13FE01E15CFD4FAA2797FDA095BB
:1043E000BA2F80839183A283B3830E9465176FE005
:1043F00070E00E944B13FE01EB5DFD4F21E0892B25
:1044000009F420E020830E94651760E170E00E94BB
:104410004B13FE01EA5DFD4F21E0892B09F420E0FA
:1044200020830E94651761E170E00E944B13FE013A
:10443000E95DFD4F21E0892B09F420E020830E94F3
:1044400065176DE870E00E944B13FE01EA5EFD4FB8
:10445000AA2797FDA095BA2F80839183A283B38367
:104460000E9465176EE870E00E944B13FE01E65E45
:10447000FD4FAA2797FDA095BA2F80839183A28331
:10448000B3830E9465176FE870E00E944B13FE0132
:10449000E25EFD4FAA2797FDA095BA2F80839183F6
:1044A000A283B3830E94651765E270E00E944B13FC
:1044B000FE01E85DFD4F21E0019709F020E0208337
:1044C000FE01E75DFD4F1082319610820E94651754
:1044D00064E270E00E944B13FE01E55DFD4F21E0B8
:1044E000019709F020E02083FE01E45DFD4F10827A
:1044F000319610820E9465176DE270E00E944B13A6
:10450000FE01E25DFD4F21E0019709F020E02083EC
:104510000E9465176EE270E00E944B13FE01E15DA0
:10452000FD4F21E0019709F020E020830E946517EC
:104530006FE270E00E944B13FE01E05DFD4F21E051
:10454000019709F020E020830E94651761E970E07F
:104550000E944B13FE01EE5DFD4F21E0019709F033
:1045600020E020830E94651762E970E00E944B13EF
:10457000FE01ED5DFD4F21E0019709F020E0208371
:104580000E94651763E970E00E944B13FE01EC5D29
:10459000FD4F21E0019709F020E020830E9465177C
:1045A00067E370E00E944B138E010D5B1D4FAA273D
:1045B00097FDA095BA2FF80180839183A283B383DE
:1045C0000E94651768E370E00E944B137E01F9EBCF
:1045D000EF1AFDEFFF0AAA2797FDA095BA2FF70162
:1045E00080839183A283B3830E94651769E370E09F
:1045F0000E944B13AA2797FDA095BA2F9E01255B19
:104600003D4FF90180839183A283B383F8014081F8
:10461000518162817381141615061606170644F03F
:1046200041E050E060E070E0408351836283738337
:10463000F7014081518162817381141615061606B7
:10464000170644F041E050E060E070E040835183A1
:1046500062837383181619061A061B064CF081E054
:1046600090E0A0E0B0E0F90180839183A283B3835E
:10467000F901C080D180F701E080F180F80100816C
:1046800011810E9460069601A701B8010E94B90637
:10469000FE01E95FFD4F80809180A280B3803C974E
:1046A000C080D180E280F3803C970081118122811B
:1046B00033813C974081518162817381FF96808173
:1046C0008F933C9783818F9382818F9381818F9386
:1046D00080818F93789680818F93369680818F9397
:1046E0003C9780818F93339680818F931F921F9286
:1046F0001F92F0E8FF93FE01EF5CFD4F80818F93E6
:104700007E9780818F93F30180818F93FE01E95C16
:10471000FD4F83818F9382818F9381818F938081DD
:104720008F93CE0140960E94B738FE01E55FFD4FA2
:1047300080809180A280B3803C97C080D180E2804D
:10474000F3803C9700811181228133813C97408125
:10475000518162817381FC9680818F933997838127
:104760008F9382818F9381818F9380818F937596B0
:1047700080818F93369680818F933C9780818F9331
:10478000339680818F931F921F921F92F0E8FF93C0
:10479000FE01EE5CFD4F80818F937E9780818F9329
:1047A000F20180818F93FE01E55CFD4F83818F9341
:1047B00082818F9381818F9380818F93CE018757E0
:1047C0009F4F0E94B7388DB79EB788960FB6F89462
:1047D0009EBF0FBE8DBFFE01E15FFD4F80809180C7
:1047E000A280B3803C97C080D180E280F3803C9768
:1047F00000811181228133813C9740815181628106
:104800007381F99680818F93369783818F9382810C
:104810008F9381818F9380818F93729680818F9304
:10482000369680818F933C9780818F9333968081D9
:104830008F931F921F921F9290E89F9336968081CC
:104840008F937E9780818F93F10180818F93FE01FA
:10485000E15CFD4F83818F9382818F9381818F9360
:1048600080818F93CE018E5F9E4F0E94B7388DB7A7
:104870009EB744960FB6F8949EBF0FBE8DBFCE0173
:10488000DF91CF911F910F91FF90EF90DF90CF902C
:10489000BF90AF909F908F907F906F905F904F9060
:1048A0003F902F90B1CB8F929F92AF92BF92CF92B9
:1048B000DF92EF92FF920F931F93CF93DF93EC0160
:1048C00028E1822E912C3CE1A32EB12C4AE1C42E8A
:1048D000D12C52E0E52EF12C03E010E026E230E08E
:1048E00047E350E066E370E040960E948B38812CED
:1048F000912CA12CB12CC12CD12C6FE0E62EF12CE7
:104900000EE010E028E330E04DE350E06CE370E0AF
:10491000CE0187579F4F0E948B3873E1E72EF12C11
:1049200002E110E02EE330E040E350E06EE270E0A0
:10493000CE018E5F9E4F0E948B38FE01E652FE4FE5
:104940001182108232961182108232961182108268
:10495000CE0188DBCE0133D95E0185E8A81A8EEF3F
:10496000B80A01E210E02FE130E041E150E060E1FF
:1049700070E0C5010E94263D6E018BE6C81A8EEFDD
:10498000D80A05E210E023E230E049E150E067E1B7
:1049900070E0C6010E94263D7E0181E5E81A8EEF97
:1049A000F80A09E210E027E230E04DE150E06BE167
:1049B00070E0C7010E94263DFE01E056FD4F2081B8
:1049C00031813C9740815181369760817181C50169
:1049D0000E948E3CFE01EE55FD4F208131813C97B7
:1049E00040815181369760817181C6010E948E3C61
:1049F000FE01EC55FD4F208131813C974081518172
:104A0000CE56DD4F68817981C701DF91CF911F912B
:104A10000F91FF90EF90DF90CF90BF90AF909F905D
:104A20008F900C948E3C2F923F924F925F926F9298
:104A30007F928F929F92AF92BF92CF92DF92EF922E
:104A4000FF920F931F93CF93DF93CDB7DEB7C95774
:104A5000D1090FB6F894DEBF0FBECDBF8C01FC01AB
:104A6000108211821282138214821582168217829A
:104A7000108611861286138614861586168617866A
:104A80002C01F0E14F0E511CC2010E944F357801FC
:104A900089E8E80EF11CC7010E944F356801EEEF6E
:104AA000CE1ADE0AC6010E944F353801F5E86F1AAA
:104AB000FEEF7F0AC3010E94783C48018BE6881A0A
:104AC0008EEF980AC4010E94783C5801E1E5AE1AC5
:104AD000EEEFBE0AC5010E94783C6FE678E0C8019F
:104AE00087539E4F0E948E4AF801E153FE4F118278
:104AF0001082329611821082329611821082329682
:104B00001182108232961082319610823196108274
:104B10003196118210823296118210823296118261
:104B20001082329610823196108231961082319620
:104B300010821182128213823496108211821282A4
:104B4000138234961082118212821382349610825C
:104B50001182128213823496108211821282138281
:104B6000349610821182128213823496108211823E
:104B7000128213823496108211821282138234962A
:104B80001082118212821382349610821182128254
:104B9000138234961082118212821382349610820C
:104BA00011821282138234961082319610823196CD
:104BB00010823196108211821282138234961082F2
:104BC0001182128213823496108211821282138211
:104BD000349610823196108231961082319610826E
:104BE0003196108231961082319610823196108261
:104BF0003196108231961082319610823196108251
:104C00003196108231961082319610823196108240
:104C10003196108231961082319610823196108230
:104C2000319610823196108211821282138234964C
:104C300010821182128213823496108211821282A3
:104C40001382D801AD5BBD4F8CE0EBE1F2E0019047
:104C50000D928A95E1F7F801E15BFD4F1082118218
:104C60001282138234961082118212821382349639
:104C7000108211821282138234961182108232962F
:104C80001182108232961182108232961082118225
:104C90001282138234961082118212821382349609
:104CA0001082118212821382349610821182128233
:104CB00013823496108211821282138234961082EB
:104CC00011821282138234961182108232961182DE
:104CD00010823296118210823296108211821282D4
:104CE00013823496108211821282138234961082BB
:104CF000118212821382349610823196108231967C
:104D00001082319611821082329611821082329670
:104D10001182108232961182108232961182108294
:104D2000329611821082329611821082329611824E
:104D3000108232961182108232961182108232963F
:104D40001182108232961182108232961182108264
:104D50003296118210821801F6E52F1AFDEF3F0AF4
:104D6000F1011082CE0101960E944F3589E7FE01C4
:104D70003196D20101900D928A95E1F7CE0101960C
:104D80000E944F3589E7FE013196D70101900D92BF
:104D90008A95E1F7CE0101960E944F3589E7FE0121
:104DA0003196D60101900D928A95E1F788E5F801D8
:104DB000808B89E5F70180838AE5F6018083CE0147
:104DC00001960E94783C8AE1FE013196D301019060
:104DD0000D928A95E1F7CE0101960E94783C8AE116
:104DE000FE013196D40101900D928A95E1F7CE0132
:104DF00001960E94783C8AE1FE013196D50101902E
:104E00000D928A95E1F7C8014EDDF1011082C75875
:104E1000DF4F0FB6F894DEBF0FBECDBFDF91CF914D
:104E20001F910F91FF90EF90DF90CF90BF90AF90C8
:104E30009F908F907F906F905F904F903F902F90BA
:104E40000895CF93DF938091100B9091110B892BD4
:104E500051F48BEA92E00E94B94BEC01E4DDD0936F
:104E6000110BC093100B8091100B9091110BDF91DF
:104E7000CF9108950F931F93CF93DF9300D01F928C
:104E8000CDB7DEB78C01FC01E557FD4F808188234B
:104E900031F0C80185589E4F0E94A43C04C0C8014F
:104EA00040960E94413CAB01BC0149835A836B830D
:104EB0007C830E94600649815A816B817C810E94BB
:104EC0009406F801E457FD4F8081882331F0C80132
:104ED0008B569E4F0E94A43C05C0C80187579F4F28
:104EE0000E94413CAB01BC0149835A836B837C83A4
:104EF0000E94600649815A816B817C810E949D06D7
:104F0000F801E357FD4F8081882331F0C8018155B6
:104F10009E4F0E94A43C05C0C8018E5F9E4F0E9418
:104F2000413CAB01BC0149835A836B837C830E9463
:104F3000600649815A816B817C810F900F900F90A0
:104F40000F90DF91CF911F910F910C94A6060E94B4
:104F500060060C9492080E9460060C94EA070E9476
:104F600060060C94C106CF92DF92EF92FF92CF932E
:104F7000DF93EC016A017B0140960E94483CB70137
:104F8000A601CE0185589E4FDF91CF91FF90EF9003
:104F9000DF90CF900C949E3CCF92DF92EF92FF92E5
:104FA000CF93DF93EC016A017B0187579F4F0E94EB
:104FB000483CB701A601CE018B569E4FDF91CF91A1
:104FC000FF90EF90DF90CF900C949E3CCF92DF92B9
:104FD000EF92FF92CF93DF93EC016A017B018E5F2A
:104FE0009E4F0E94483CB701A601CE0181559E4FBD
:104FF000DF91CF91FF90EF90DF90CF900C949E3C8B
:105000000F93CF93DF93EC0106B126B1E0E0F1E01E
:10501000408160810295017026FB222720F94170B2
:105020006695617085589E4F0E944B3D06B126B132
:1050300040B160B1017022FB222720F943FB4427D5
:1050400040F966956170CE018B569E4F0E944B3D94
:1050500002B322B340B160B1017022FB222720F9D4
:10506000441F4427441F65FB662760F9CE01815524
:105070009E4F0E944B3DDF91CF910F910895CF93AA
:10508000DF93EC01BDDFCE0140960E940D38CE01CA
:1050900087579F4F0E940D38CE018E5F9E4FDF9144
:1050A000CF910C940D382F923F924F925F926F9256
:1050B0007F928F929F92AF92BF92CF92DF92EF92A8
:1050C000FF920F931F93CF93DF93CDB7DEB7E29795
:1050D0000FB6F894DEBF0FBECDBF1C012A013B0105
:1050E0000F83188729873A872A960EAD1FAD2A9716
:1050F000FC01ED5BFD4F60817181828193810E9493
:10510000C04C9B01AC01C301B2010E94744D0E94CE
:105110008D4C6B8F7C8F8D8F9E8FF101E95BFD4FE6
:1051200060817181828193810E94C04C9B01AC019E
:105130006F81788589859A850E94744D0E948D4C77
:105140006F8F78A389A39AA3F101E55BFD4F60817E
:105150007181828193810E94C04C9B01AC01C70187
:10516000B6010E94744D0E948D4C6BA37CA38DA34D
:105170009EA30E9451436B8B7C8B8D8B9E8BF10188
:10518000ED52FE4F11821082329611821082A114CC
:10519000B10489F0C501A0E0B0E03E9640815181A4
:1051A0006281738184179507A607B70724F480836B
:1051B0009183A283B3838114910491F0A12CB12C2B
:1051C000F101E951FE4F80819181A281B38188165E
:1051D0009906AA06BB0624F480829182A282B38239
:1051E0000115110591F020E030E0F101E551FE4F8D
:1051F00080819181A281B381081719072A073B0793
:1052000024F40083118322833383210120E1420EA1
:10521000511CF101ED51FE4F40815181628173813A
:10522000C2010E944F3C310139E8630E711CF1014B
:10523000E951FE4F4081518162817381C3010E9417
:105240004F3CA1014E5F5E4F58874F83F101E551FE
:10525000FE4F40815181628173818F8198850E94C8
:105260004F3C0E9460060E9479060E9460060E94E0
:1052700082060E9460060E948B060E9460060E94C1
:1052800079066F87788B898B9A8B0E9460060E94C3
:1052900082064B015C010E9460060E948B066F8BA8
:1052A000788F898F9A8FF101E15BFD4F1082118217
:1052B00012821382349610821182128213823496E3
:1052C00010821182128213823496118210823296D9
:1052D0001182108232961182108232968F859889BF
:1052E000A989BA8980839183A283B383349680820B
:1052F0009182A282B38234962F89388D498D5A8D3E
:1053000020833183428353832B96EFAC2B970B8DF5
:105310001C8D2D8D3E8DAC01BD01C2010E946139F5
:105320002C96EFAC2C970F8D18A129A13AA1B501AD
:10533000A401C3010E9461392D96EFAC2D970BA1FA
:105340001CA12DA13EA14F89588D698D7A8D8F8129
:1053500098850E946139D10151961C92F101E6575E
:10536000FF4F1082E758FF4F1082C101F8DDC101E5
:10537000EEDDC2010E94343AC3010E94343A8F81AB
:1053800098850E94343A81E090E0F101E652FE4FA8
:10539000918380837101B4E2EB1ABEEFFB0AF7013F
:1053A00091838083810102521E4FD8018D939C937B
:1053B00041E050E0B201C1010E94C41AF7014081EE
:1053C0005181B301C1010E94C41AD8014D915C9171
:1053D0006F817885C1010E94C41AC1010E94A21F79
:1053E0006101B9E2CB1ABEEFDB0A81E0F6018083EE
:1053F0007101F8E2EF1AFEEFFF0AD7018C93055016
:105400001109F80180832B96FFAD2B97F1110DC088
:105410002C962FAD2C97211105C02D963FAD2D97C1
:10542000332319F1C2010E94743B2C964FAD2C9787
:10543000411103C0C3010E94743B2D965FAD2D97AF
:10544000511104C08F8198850E94743B2B96EFAD5B
:105450002B97D601EC932C96EFAD2C97D701EC93BC
:105460002D96EFAD2D97D801EC93C2010E94B93A69
:10547000C3010E94B93A8F8198850E94B93AC2014E
:105480000E942138C3010E9421388F8198850E9493
:1054900021380E9460060E9402098F8B188A1F869D
:1054A000910129523E4F3C8F2B8FA10146525E4FF6
:1054B0005EA74DA7C10184529E4F98A38F8FD10143
:1054C000A252BE4FBCA3ABA3F101E852FE4FF8A716
:1054D000EFA32E5F3F4F3AA729A74F545F4F5AAB18
:1054E00049AB0B9798AB8FA71B97BCA7ABA7AB8D0E
:1054F000BC8D8C9181110BC0EFA1F8A58081811129
:1055000006C0A9A5BAA58C91882309F456C3BF8902
:10551000B11153C34DA55EA5B201C1010E942E1B5E
:105520004F8D58A1B301C1010E942E1B4BA15CA15C
:105530006F817885C1010E942E1BC2010E94FF3B32
:10554000C3010E94FF3B8F8198850E94FF3BC201EF
:105550000E94553C882321F1C2010E94B93A89A8D2
:105560009AA85101B1E8AB1ABDEFBB0A6101E6E6AA
:10557000CE1AEDEFDE0A7101F3E9EF1AFDEFFF0A33
:1055800081010F591D4F9101215B3D4FA1014558EC
:105590005E4FB201C1010E946D1CC2010E945A3CC3
:1055A000C3010E94553C882339F1C3010E94B93AD6
:1055B000410124E7821A2DEF920A51013DE7A31A17
:1055C0003DEFB30A610144E6C41A4DEFD40A7101FC
:1055D0005FE8E51A5DEFF50A81010B591D4F910156
:1055E0002D5A3D4FA1014B565E4FB301C1010E94A0
:1055F0006D1CC3010E945A3C8F8198850E94553CC6
:10560000882351F18F8198850E94B93A410183E73F
:10561000881A8DEF980A510199E7A91A9DEFB90AE6
:105620006101A2E6CA1AADEFDA0A7101BBE8EB1A12
:10563000BDEFFB0A810107591D4F9101295A3D4FCA
:10564000A10141555E4F6F817885C1010E946D1C9B
:105650008F8198850E945A3CC2010E946F3B88232B
:1056600009F441C0F101E758FD4F6081718188273D
:1056700077FD8095982F0E94C04C9B01AC01F101F1
:10568000E15BFD4F60817181828193810E94704D49
:1056900018164CF5C2010E94743B62EC74E0810163
:1056A00007531E4FC8010E94E94A65ED75E0C80125
:1056B0000E94E94A6DE678E0C8010E94E94A2B960B
:1056C0002FAD2B97222309F45BC340E050E0BA01D1
:1056D000C10185589E4F0E949E3C40E050E0BA01B7
:1056E000C2010E94483CC3010E946F3B882309F419
:1056F00041C0F101E558FD4F60817181882777FD38
:105700008095982F0E94C04C9B01AC01F101ED5A8D
:10571000FD4F60817181828193810E94704D1816C6
:105720004CF5C3010E94743B62EC74E081010753A5
:105730001E4FC8010E94E94A6DEF75E0C8010E9442
:10574000E94A6DE678E0C8010E94E94A2C965FAD0F
:105750002C97552309F419C340E050E0BA01C10168
:105760008B569E4F0E949E3C40E050E0BA01C30120
:105770000E94483C8F8198850E946F3B882309F4E2
:1057800043C0F101E358FD4F60817181882777FDA7
:105790008095982F0E94C04C9B01AC01F101E95A01
:1057A000FD4F60817181828193810E94704D181636
:1057B0005CF58F8198850E94743B62EC74E08101F6
:1057C00007531E4FC8010E94E94A65E276E0C8010E
:1057D0000E94E94A6DE678E0C8010E94E94A2D96E8
:1057E0009FAD2D97992309F4D5C240E050E0BA014E
:1057F000C10181559E4F0E949E3C40E050E0BA019D
:105800008F8198850E94483C60E0C2010E94963AD0
:10581000882371F040E050E0BA01C2010E94483C88
:1058200040E050E0BA01C10185589E4F0E949E3C65
:1058300060E0C3010E94963A882371F040E050E096
:10584000BA01C3010E94483C40E050E0BA01C101E6
:105850008B569E4F0E949E3C60E08F8198850E94EF
:10586000963A882379F040E050E0BA018F8198851C
:105870000E94483C40E050E0BA01C10181559E4F72
:105880000E949E3CC2010E946F3BEB8DFC8D808389
:10589000C3010E946F3BAFA1B8A58C938F819885FF
:1058A0000E946F3BE9A5FAA58083C2010E94413C9A
:1058B0006B877C878D879E87C3010E94413C4B018B
:1058C0005C018F8198850E94413C6B017C010E94A4
:1058D00060064B855C856D857E850E9494060E94DE
:1058E0006006B501A4010E949D060E946006B701F2
:1058F000A6010E94A606C10132DBAB8DBC8D8C9146
:10590000882309F44AC00E9451432B893C894D8960
:105910005E89621773078407950760F40E945143FC
:105920002B893C894D895E89621773078407950727
:10593000A0F51EC00E9451436B017C018B899C899C
:10594000AD89BE89C81AD90AEA0AFB0AF101E95CE5
:10595000FD4F2081318142815381A8EEB3E00E9446
:105960002E4E6C157D058E059F0508F418C2D6CF06
:105970000E9451436B017C01F101E95CFD4F2081E4
:10598000318142815381A8EEB3E00E942E4E6C1506
:105990007D058E059F0508F402C2AFA1B8A58C91C4
:1059A000882309F44AC00E9451432B893C894D89C0
:1059B0005E89621773078407950760F40E9451435C
:1059C0002B893C894D895E89621773078407950787
:1059D000A0F51EC00E9451436B017C018B899C89FC
:1059E000AD89BE89C81AD90AEA0AFB0AF101E95C45
:1059F000FD4F2081318142815381A8EEB3E00E94A6
:105A00002E4E6C157D058E059F0508F4D4C1D6CFAA
:105A10000E9451436B017C01F101E95CFD4F208143
:105A2000318142815381A8EEB3E00E942E4E6C1565
:105A30007D058E059F0508F4BEC1A9A5BAA58C9168
:105A4000882309F44AC00E9451432B893C894D891F
:105A50005E89621773078407950760F40E945143BB
:105A60002B893C894D895E896217730784079507E6
:105A7000A0F51EC00E9451436B017C018B899C895B
:105A8000AD89BE89C81AD90AEA0AFB0AF101E95CA4
:105A9000FD4F2081318142815381A8EEB3E00E9405
:105AA0002E4E6C157D058E059F0508F490C1D6CF4E
:105AB0000E9451436B017C01F101E95CFD4F2081A3
:105AC000318142815381A8EEB3E00E942E4E6C15C5
:105AD0007D058E059F0508F47AC18CE39CE00E9449
